:020000040800F2
:1000000000180020653A0008CB020008CD02000865
:1000100000000000000000000000000000000000E0
:10002000000000000000000000000000CF020008F7
:100030000000000000000000D1020008D302000808
:10004000E53A0008E53A0008E53A0008E53A000814
:10005000E53A0008E53A0008E53A0008E53A000804
:10006000E53A0008E53A0008E53A0008E53A0008F4
:10007000E53A0008E53A0008E53A0008E53A0008E4
:10008000E53A00080000000000000000E53A000822
:1000900000000000E53A0008E53A0008E53A0008EB
:1000A00000000000E53A0008E53A0008E53A0008DB
:1000B000E53A000800000000E53A0008DD0200080B
:1000C00010B5064C2378002B07D1054B002B02D02E
:1000D000044800E000BF0123237010BD7C01002014
:1000E00000000000403B0008044B10B5002B03D07B
:1000F0000349044800E000BF10BDC04600000000F6
:1001000080010020403B0008002243088B4274D34A
:1001100003098B425FD3030A8B4244D3030B8B4208
:1001200028D3030C8B420DD3FF22090212BA030C11
:100130008B4202D31212090265D0030B8B4219D3F2
:1001400000E0090AC30B8B4201D3CB03C01A524112
:10015000830B8B4201D38B03C01A5241430B8B425A
:1001600001D34B03C01A5241030B8B4201D30B0343
:10017000C01A5241C30A8B4201D3CB02C01A52416A
:10018000830A8B4201D38B02C01A5241430A8B422D
:1001900001D34B02C01A5241030A8B4201D30B0216
:1001A000C01A5241CDD2C3098B4201D3CB01C01A30
:1001B000524183098B4201D38B01C01A524143093A
:1001C0008B4201D34B01C01A524103098B4201D328
:1001D0000B01C01A5241C3088B4201D3CB00C01A95
:1001E000524183088B4201D38B00C01A524143080D
:1001F0008B4201D34B00C01A5241411A00D2014632
:10020000524110467047FFE701B5002000F006F8A4
:1002100002BDC0460029F7D076E770477047C04658
:1002200082B0064A516980208002014351615369BE
:1002300003400193019B02B07047C046001002408A
:1002400072B6FEE700B599B0342200210BA803F086
:100250006FFC1022002107A803F06AFC182200217D
:1002600001A803F065FC20230B931F3B13930BA8FD
:1002700002F016F8002818D107230793043B0893CF
:10028000002309930A93012107A802F0F5FA002838
:100290000DD180239B0201930023069301A802F055
:1002A0008DFB002805D119B000BDFFF7C9FFFFF78E
:1002B000C7FFFFF7C5FF10B502F04AFCFFF7C2FF0A
:1002C000FFF7AEFF00F02AF8FEE7FEE7FEE7704713
:1002D000704710B502F04CFC10BD000010B502488C
:1002E00001F08CFD10BDC0462C0E002082B00A4BE0
:1002F000996901221143996199690A400092009A13
:10030000DA69802149050A43DA61DB690B40019310
:10031000019B02B07047C0460010024010B5002299
:100320001149124802F08FFC002811D110490F48E2
:1003300002F0A5FC00280ED10E490C4803F058FB32
:1003400000280BD1094802F0A3FC002809D110BDF8
:10035000FFF776FFEAE7FFF773FFEDE7FFF770FFC0
:10036000F0E7FFF76DFFF2E70000002098010020A2
:100370006C0000205000002012230B8000487047C2
:100380001C00002004230B80004870473000002030
:1003900030B500230AE05D0037344C5500015C00A5
:1003A00001340C19002525700133DBB2934206D2CB
:1003B000040F092CEFD85D0030344C55EEE730BD0A
:1003C00070B50B4B18680B4B1D680B4B1B68C018A6
:1003D000002800D170BD094CA11C0822FFF7D8FFEE
:1003E0002100123104222800FFF7D2FFF2E7C046B5
:1003F000ACF7FF1FB0F7FF1FB4F7FF1F340000205A
:1004000010B51A230B80FFF7DBFF014810BDC04673
:100410003400002010B50A00002805D1054906481F
:1004200003F009F9034810BD0249034803F003F93A
:10043000F8E7C0465C040020583B000810B50A00ED
:10044000034C2100034803F0F6F8200010BDC0461D
:100450005C040020703B000810B50A00002805D19C
:100460000549064803F0E7F8034810BD0249034870
:1004700003F0E1F8F8E7C0465C040020843B000884
:1004800010B50A00002805D10549064803F0D3F845
:10049000034810BD0249034803F0CDF8F8E7C04611
:1004A0005C040020903B000800207047002070474B
:1004B00010B50100044C200003F0AEFA200003F058
:1004C000B2FA002010BDC0469801002010B5064CBD
:1004D00000220649200003F094FA0549200003F0A9
:1004E0009BFA002010BDC04698010020440A00205D
:1004F0005C060020022804D005D8002800D0022085
:1005000070470120FCE70220FAE710B5FFF79AFEDA
:1005100010BD000000B583B002680C4B9A4201D0B8
:1005200003B000BD0A4AD169802000040143D161B3
:10053000D36903400193019B002200211F2002F098
:1005400029FB1F2002F056FBEAE7C046005C004092
:100550000010024010B50100BC239B00C058403B76
:100560009C46614402F0B0FB10BD10B50300BC22F4
:10057000920080588A005218D2009B187D33FF33B6
:100580001A6802F0D3FB10BD10B50300BC22920024
:1005900080588A005218D2009B18DA6B02F018FCBF
:1005A00010BD10B5BC239B00C05802F0D3FC10BD99
:1005B00070B504008368022B09D1BC25AD00012170
:1005C000605902F0A9FC605902F077FC70BDFFF79A
:1005D00037FEF2E710B50400BC239B00C05802F0C0
:1005E0009FFCA369002B04D0024A136906210B4328
:1005F000136110BD00ED00E010B504008369002B0D
:1006000005D1BC239B00E05802F096FC10BD044AC3
:10061000136906218B431361FFF777FFF1E7C046AB
:1006200000ED00E070B504001D48BC239B00C450E1
:10063000303BE0501B4B036008234360063B836064
:10064000036100238361C361036200F0B7FF0028E8
:1006500023D1B025AD00182300220021605901F0FC
:10066000EBFD582300228021605901F0E5FDC023F5
:1006700000228121605901F0DFFD88235B00002208
:100680000121605901F0D8FD605980235B000022F0
:10069000822101F0D1FD002070BDFFF7D1FDD8E728
:1006A0002C0E0020005C004010B5B0239B00C05809
:1006B00000F0F6FFFFF71EFF10BD10B514001A0082
:1006C000B0239B00C058230001F06CFCFFF712FF21
:1006D00010BD10B5B0239B00C05801F0A2FCFFF77D
:1006E00009FF10BD10B5B0239B00C05801F030FDCC
:1006F000FFF700FF10BD10B5B0239B00C05801F0FC
:100700005EFDFFF7F7FE10BDB0239B00C3584AB251
:10071000002A09DB7F220A4091008918C9005B1872
:100720006B33FF33187870477F220A400132910003
:100730008918C9005B189878F5E710B5B0239B00BD
:10074000C05801F045FBFFF7D5FE10BD10B5B02431
:10075000A400005901F0CEFCFFF7CCFE10BD10B58F
:10076000B024A400005901F090FCFFF7C3FE10BDB7
:1007700010B5B0239B00C05801F0B2FC10BD0000C2
:1007800000487047201100207047000044230022D9
:10079000C252043B014AC2520020704780BFFFFF93
:1007A0004022835A02490B40835200207047C046C2
:1007B0007F40000084B00191029203934022012304
:1007C000835200238352043283520C32835200201E
:1007D00004B07047F0B503000D78AD0045192A88C4
:1007E000AA480240C87802285AD00AD8002853D014
:1007F000012804D18020C0000243002009E001202C
:1008000007E0032804D1C020C0000243002000E01C
:1008100001209F4C224392B22A800A7896009E19AA
:1008200035882DB29B4F3D402A4392B21443A4B267
:1008300034800A7B002A00D090E04A78002A3CD01D
:1008400050229D5A5D190A78D20052198024E40082
:10085000A4466244CC886408640014800A7892003C
:100860009A181488640606D514883D0025408A4CE1
:100870002C43A4B21480CA78012A13D00A789200BB
:100880009B181A8885490A4020214A4092B2804923
:100890000A4392B21A804BE08024A4002243B8E7B6
:1008A0000020B6E70A7892009B181A887B4911400D
:1008B000774A0A4392B21A803AE050269D5B5D194E
:1008C0000A78D2005219764CA4466244CC88640857
:1008D000640014809D5B5D190A78D2005219714C36
:1008E000A44662440C69002C23D114886E4D2C4020
:1008F000148014886D4D2C43A4B214800A789200A1
:100900009A181488640406D51488624D2540684CF2
:100910002C43A4B214800A7892009B181988654A67
:100920001140C02292015140594A0A4392B21A80A2
:10093000F0BD3E2C07D86508E40700D50135AD02AF
:10094000ADB21580DAE76509E40600D1013DAD02DC
:10095000ADB2564C2543ADB21580CFE70A78920070
:100960009A1814884B4D2540534C2C43A4B2148044
:1009700050269D5B5D190A78D20052198024E4004C
:10098000A44662440C896408640014809D5B5D1970
:100990000A78D2005219424CA44662444C89640839
:1009A000640014804A78002A30D10A7892009A189C
:1009B0001488640406D51488364D25403C4C2C43DD
:1009C000A4B214800A7892009A181488640606D596
:1009D0001488304D2540304C2C43A4B214800C7840
:1009E000A4001C192288334D1540C02292016A4090
:1009F000274D2A4392B222800A7892009B181A88C7
:100A000026490A402A4392B21A8091E70A78920056
:100A10009A181488640406D514881E4D2540244C69
:100A20002C43A4B214800A7892009A1814886406A1
:100A300006D51488174D2540174C2C43A4B21480BA
:100A4000CA78012A17D00C78A4001C192288134DEB
:100A50002A4020256A4092B20D4D2A4392B222804C
:100A60000A7892009B181A8812491140084A0A43D2
:100A700092B21A805CE70A7892009A181488074D9F
:100A80002540034C2C43A4B21480E9E78F89FFFF73
:100A90008080FFFF8F8FFFFFC080FFFFBF8FFFFFB2
:100AA0000404000006040000FF83FFFF0080FFFF36
:100AB00080C0FFFF8FBFFFFF8081FFFF10B50B7B62
:100AC000002B33D14B78002B18D00B789B00C31828
:100AD0001A88520606D51A884E4C14404E4A2243B4
:100AE00092B21A800B789B00C01803884B4A1A40B8
:100AF0004B4B13439BB20380002010BD0B789B002F
:100B0000C3181A88520406D51A88424C1440454A24
:100B1000224392B21A800B789B00C0180388424A85
:100B20001A403F4B13439BB20380E5E74B78002B01
:100B300037D10B789B00C3181A88520406D51A883F
:100B4000344C1440374A224392B21A800B789B00EF
:100B5000C3181A88520606D51A882E4C14402E4AFD
:100B6000224392B21A800B789B00C3181A88294C32
:100B70001440294A224392B21A800C78A400041926
:100B80002388294A1340264A13439BB223800B78BB
:100B90009B00C018038821490B401A4392B202807F
:100BA000AAE70B789B00C3181A88520406D51A8846
:100BB000184C14401B4A224392B21A800B789B00B7
:100BC000C3181A88520606D51A88124C1440124AC5
:100BD000224392B21A800B789B00C3181A880D4CDE
:100BE0001440104A224392B21A800C78A4000419CF
:100BF00023880A4A13400A4A13439BB223800B7886
:100C00009B00C018038808490B401A4392B2028027
:100C100072E7C0468F8FFFFFC080FFFFBF8FFFFFCF
:100C20008080FFFF80C0FFFF8FBFFFFF4B78002B4E
:100C30000ED00B789B00C01803880C4A134010227A
:100C400053409BB20A4A13439BB203800020704773
:100C50000B789B00C0180288064B1A4080235B016A
:100C60005A40034B13439BB20380EFE7BF8FFFFF54
:100C70008080FFFF8FBFFFFF10B50B7B002B3AD1A9
:100C80004B78002B1DD00B789B00C3181A88520696
:100C900006D51A88194C1440194A224392B21A8078
:100CA000CB78012B27D00B789B00C0180388154AFE
:100CB0001340202253409BB2134A13439BB203803C
:100CC00019E00B789B00C3181A88520406D51A88BD
:100CD0000A4C14400D4A224392B21A800B789B00B2
:100CE000C01802880A4B1A40C0239B015A40064B89
:100CF00013439BB20380002010BDC0468F8FFFFFBF
:100D0000C080FFFFBF8FFFFF8080FFFF80C0FFFF1D
:100D10008FBFFFFF002902D14C238022C252002046
:100D2000704700005822835A02490B439BB28352FA
:100D3000002070470080FFFF4423C05A80B27047F4
:100D400010B501335C0812188023DB009C46624416
:100D500007E008784B781B0203431380023202310C
:100D6000013C002CF5D110BD70B505000C004A788F
:100D7000012A2ED00B7B002B00D067E28B6909691A
:100D80008B4200D849E25B1AA3615023E85A281825
:100D90002378DB001B18B94A94466344002900D02D
:100DA0003FE21A88B6490A401A801A88B5490A43B0
:100DB00092B21A80207880002D182A88B24B1A40EF
:100DC000C0239B015A40B14B13439BB22B800020A0
:100DD00070BD8E6909698E4200D90E00237B002BFD
:100DE00021D0E378022B3ED0237899006918098836
:100DF000490600D4CCE1002A00D0ABE15032AA5A17
:100E0000AA18DB009B189D4A94466344002E00D02C
:100E10008BE11A889A490A401A801A8899490A432C
:100E200092B21A80A0E1B6B2E2883300616928006C
:100E3000FFF786FF5023E95A69182378DB005B1817
:100E4000934A944663441E80207880002D182B8896
:100E5000904A1340302253409BB28C4A13439BB2BA
:100E60002B800020B4E7236A994200D342E1237823
:100E70009B00EB181A8888491140884A0A4392B2AD
:100E80001A80236A9B1B236223789A00AA1812886F
:100E9000520600D48DE06278002A28D15032AA5A36
:100EA000AA18DB009B18754A94466344002E09D1AA
:100EB0001A8873490A401A801A8872490A4392B202
:100EC0001A8016E03E2E07D87208F10700D50132CD
:100ED000920292B21A800CE07209F10600D1013A36
:100EE000920292B267490A4392B21A8001E0012A43
:100EF00026D06289B3B261692800FFF721FF6369D8
:100F00009B196361236A2269934224D99B1B236244
:100F10006378002B38D15033E95A69182378DB0005
:100F20005B185B4A94466344002E18D11A885449D2
:100F30000A401A801A8853490A4392B21A8025E05F
:100F40004F32AA5AAA18DB009B184C4A94466344B5
:100F5000B2B21A80CDE7002222621E00D8E73E2EF0
:100F600007D87208F10700D50132920292B21A80B6
:100F70000CE07209F10600D1013A920292B24149A5
:100F80000A4392B21A8001E0012B06D02289B3B243
:100F900061692800FFF7D4FE56E74F33EA5AAA18D2
:100FA0002378DB009B183A4A94466344B2B21A8015
:100FB000ECE76278002A28D15032AA5AAA18DB003E
:100FC0009B18334A94466344002E09D11A882C4951
:100FD0000A401A801A882B490A4392B21A8016E0F6
:100FE0003E2E07D87208F10700D50132920292B264
:100FF0001A800CE07209F10600D1013A920292B215
:1010000020490A4392B21A8001E0012A26D022899F
:10101000B3B261692800FFF793FE63699B196361AE
:10102000236A2269934224D99B1B23626378002B95
:101030004BD15033E95A69182378DB005B180F4A0B
:1010400094466344002E2BD11A880D490A401A8019
:101050001A880C490A4392B21A8038E04F32AA5AD1
:10106000AA18DB009B180A4A94466344B2B21A805D
:10107000CDE7002222621E00D8E7C0460604000029
:10108000FF83FFFF0080FFFF8FBFFFFF8080FFFF18
:1010900002040000BF8FFFFF8F8FFFFF8081FFFFE3
:1010A0003E2E07D87208F10700D50132920292B2A3
:1010B0001A800CE07209F10600D1013A920292B254
:1010C000C3490A4392B21A8001E0012B06D062891B
:1010D000B3B261692800FFF733FEB5E64F33EA5A31
:1010E000AA182378DB009B18BA4A94466344B2B22C
:1010F0001A80ECE722789200AA181188B6480840B6
:10110000B649014389B211805022A85A2818227882
:10111000D2001218B2498C4662449BB213802289D5
:1011200061692800FFF70CFE8EE63E2E07D8720894
:10113000F10700D50132920292B21A8014E07209CE
:10114000F10600D1013A920292B2A1490A4392B249
:101150001A8009E05022AA5AAA18DB009B189D4A5F
:1011600094466344B2B21A806289B3B261692800BE
:10117000FFF7E6FD6378002B41D123789B00EB1845
:101180001A8898491140984A0A4392B21A805BE63D
:10119000002A28D15032AA5AAA18DB009B18904A7C
:1011A00094466344002E09D11A8890490A401A8057
:1011B0001A8887490A4392B21A801EE03E2E07D849
:1011C0007208F10700D50132920292B21A8014E03F
:1011D0007209F10600D1013A920292B27C490A43A7
:1011E00092B21A8009E05022AA5AAA18DB009B1872
:1011F0007B4A94466344B2B21A802289B5E7012B38
:1012000000D021E623789B00EB181A88754911401D
:10121000774A0A4392B21A8016E60022A2611900A8
:10122000B3E53E2907D84A08C90700D50132920222
:1012300092B21A80BEE54A09C90600D1013A92026B
:1012400092B263490A4392B21A80B3E5CB78022B7B
:101250003AD0012B00D008E189692369994200D86E
:10126000B1E0C91AA161002A14D15032A85A281835
:101270002278D20012185A498C466244002B00D0C2
:10128000BAE0118859480140118011885048014343
:1012900089B211806278002A00D0D7E05032A85A73
:1012A00028182278D20012184A498C466244002B32
:1012B00000D0B6E013884D490B4013801388444991
:1012C0000B439BB2138075E5002A14D14E33C15AEB
:1012D00041182378DB005B18414A94466344226935
:1012E000002A21D11A8841490A401A801A883849AF
:1012F0000A4392B21A806378002B3FD15033E95AE7
:1013000069182378DB005B18324A944663442269EB
:10131000002A1ED11A8835490A401A801A882C4999
:101320000A4392B21A802BE03E2A07D85108D2070E
:1013300000D50131890289B21980DCE75109D20652
:1013400000D10139890289B2214A114389B2198039
:10135000D1E73E2A07D85108D20700D501318902CA
:1013600089B219800CE05109D20600D101398902F5
:1013700089B2174A114389B2198001E0012B16D0B6
:10138000E369002B00D115E523789B00EB181A8840
:1013900018490A408A4202D0002A00D00AE51A8879
:1013A00010491140104A0A4392B21A8002E54F33A5
:1013B000E95A69182378DB005B18064A94466344AF
:1013C000228A1A80DCE70023A3610B004BE7C046AA
:1013D0000080FFFF060400008F8EFFFF8080FFFF6C
:1013E000020400008F8FFFFFC080FFFFFF83FFFF1D
:1013F00080C0FFFF404000003E2B07D85908D807A7
:1014000000D50131890289B2118043E75909D80614
:1014100000D10139890289B21548014389B211808E
:1014200038E73E2B07D85908DB0700D50131890280
:1014300089B21180BEE45909DB0600D10139890265
:1014400089B20B4B194389B21180B3E4012A00D051
:10145000B0E44F32A85A28182278D2001218054951
:101460008C4662449BB21380A4E40120B0E4C046E1
:101470000080FFFF0604000010B55C0810188022F1
:10148000D2009446604406E0028802300A70120AD4
:101490004A700231013C002CF6D1DB0701D50388EC
:1014A0000B7010BD70B553043ED504685023E35A49
:1014B0000D78EE009B191B193A4CA44663441C8816
:1014C000A405A40D8B69A34224D31B1B8B618B69DC
:1014D000002B0DD1AD0003689C4665442E88324B2D
:1014E0001E4080239B015E40304B33439BB22B80D8
:1014F00053060BD50A78920003689C466244138811
:101500002B4D1D402B4B2B439BB21380002C04D141
:10151000200070BD00238B61D9E700680A89496902
:101520002300FFF7A9FFF3E704685023E35A0D787F
:10153000EE009B191B19204CA44663441C88A4058B
:10154000A40D8B69A34229D31B1B8B618B69002BD4
:101550000DD1AD0003689C4665442E88124B1E4099
:1015600080239B015E40114B33439BB22B8053067B
:101570000BD40A78920003689C46624413880C4D91
:101580001D400C4B2B439BB21380002CC0D0006835
:101590004A8949692300FFF76FFFB9E700238B6190
:1015A000D4E7C046020400008FBFFFFF8080FFFF2A
:1015B0008F8FFFFFC080FFFF0604000070B586B06C
:1015C000041E69D0354BC35C002B07D0334B03227C
:1015D000E2542068FFF7E4F800211EE0AA239B00F4
:1015E0000022C254FEF796FFF0E74D1CAB005A19DB
:1015F000D200A218012050705A19D20011558A0049
:101600005018C0002018C1865B19DB00E3180026C3
:10161000DE708663C6630664E9B260688142E4D323
:10162000002119E08A005318DB00E3181E006A3617
:10163000FF3600253570013E3170033635700D36AA
:1016400035607D33FF331D605218D200A2188132FD
:10165000FF3215600131C9B28842E3D8230010334C
:101660006A4623CB23C203CB03C26168A268E36846
:101670002068FFF79FF824230022E254074B013231
:10168000E254E369012B02D0002006B070BD2000B7
:1016900000F0EFFD0020F8E70120F6E7A9020000C6
:1016A00070B50400AA239B00C35C012B0DD0AA25B2
:1016B000AD00012343550068FFF768F82068FFF785
:1016C00031FB00236355002070BD0220FCE70000C1
:1016D00070B505000C001600530600D4A6E00268A1
:1016E0005023D35A0978C8001B189B189B4A94466C
:1016F00063441A889205920DA369934225D99B1AD7
:10170000A361A369002B23D073040AD589002B6839
:101710009C4661440B8892481840924B03439BB20D
:101720000B802423E35C012B24D0296823789B00C1
:10173000C9180B888C4A1340302253409BB28B4A05
:1017400013439BB20B80002070BD0023A361D8E738
:101750002800FEF719FF7304E7D5227892002B6862
:101760009C46624413887E4919407E4B0B439BB2D2
:101770001380DAE763699B186361E3699B18E3618F
:10178000216A236999421AD3C91A21626278002A10
:1017900036D12A685021505A10182278D2001218D7
:1017A0006E498C466244002B15D111887048014067
:1017B000118011886F48014389B2118022E000290D
:1017C00003D12423E1541300E0E700232422A3548F
:1017D00023620B00DAE73E2B07D85908D80700D55B
:1017E0000131890289B211800CE05909D80600D173
:1017F0000139890289B25F48014389B2118001E051
:10180000012A06D09BB2228961692868FFF798FAFD
:101810008BE72A685021505A10182278D2001218EB
:101820004E498C46624499B21180EBE7026850231E
:10183000D35A0978C8001B189B184F4A9446634432
:101840001A889205920DA36993423BD39B1AA36118
:10185000A369002B39D073040AD489002B689C46F5
:1018600061440B883E4818403E4B03439BB20B80BB
:101870002423E35C012B00D057E763699B18636165
:10188000E3699B18E361216A2369994230D3C91A3D
:1018900021622A68617800294BD15031515A52187F
:1018A0002178C900521834498C466244002B2BD150
:1018B00011882F480140118011882E48014389B2B8
:1018C000118038E00023A361C2E72800FEF75CFE28
:1018D000730400D529E7227892002B689C46624465
:1018E00013881F4919401F4B0B439BB213801CE701
:1018F000002903D12423E1541300CAE70023236203
:101900002422A3540B00C4E73E2B07D85908D8075C
:1019100000D50131890289B211800CE05909D8063D
:1019200000D10139890289B21248014389B211807C
:1019300001E0012906D09BB2628961692868FFF73E
:10194000FFF9F2E64F31515A52182178C900521866
:1019500009498C46624499B21180ECE70204000008
:101960008F8FFFFF80C0FFFFBF8FFFFF8080FFFFD3
:10197000FF83FFFF0080FFFF06040000F8B5CE469E
:10198000474680B5040020684423C35A1BB2002B8D
:1019900000DB16E24423C35A99B20F221D00154002
:1019A000134200D0C3E0CB0655D5028893B212058E
:1019B00000D583E01BB2002BE5DA0388D64A13403A
:1019C000802213439BB2038020685023C35AB42261
:1019D0005200A25CD2009B181B18D04A9446634464
:1019E0001B889B059B0D22006932FF32D361002BBF
:1019F0000FD0516900290CD01500D288FFF73CFDAB
:101A00006B69EA69944663446B6100212000FEF72C
:101A1000ACFD236850229A5A9B18C04A94466344EE
:101A200022006932FF321269002A6BD11A88BC4940
:101A30000A401A801A88BB490A4392B21A80216868
:101A40000A88B94B1A40C0239B015A40B74B134335
:101A50009BB20B8097E70388B54A1A40B14B1343FA
:101A60009BB2038021685023CB5A2822A25CD2006B
:101A70009B185B18AF4A944663441B889B059B0DDB
:101A80006364E26B94466344E36300212000FEF745
:101A90007BFD2423E35C002B00D174E7236C002B37
:101AA00000D070E72422A35C802149420B43DBB2C3
:101AB000CC31206843520023A35464E75023C35A17
:101AC000B4225200A25CD2009B181B18934A944681
:101AD00063441B889B059B0D22006932FF32D36152
:101AE000AC2189006118D288FFF7C6FC22681388F0
:101AF00089490B4080210B439BB213802000FEF7E5
:101B000029FD40E73E2A07D85108D20700D5013108
:101B1000890289B2198092E75109D20600D10139B0
:101B2000890289B27F4A114389B2198087E7AE00E2
:101B3000801903889FB21BB2002B43DB3B0600D405
:101B400021E7681C83001918C9008846A044226850
:101B500094466644328876491140724A0A4392B2EA
:101B600032804346DB78022B00D10CE12068502301
:101B7000C35A6E1CB2009219D200165DF2009B1877
:101B80001B186C4A944663441A889205920DAB0068
:101B90005B19DB00E3181F6C974200D8FCE0AB0038
:101BA0005B19DB00E318BF1A1F64AB005B19DB0095
:101BB000E3181B6C002B00D0F5E031002000FEF78D
:101BC000E3FCE0E60388544A1340802213439BB2AF
:101BD00003807219D2006932FF329046A044731913
:101BE000DB00E3187533FF331B78002B4DD12068E1
:101BF0005033C25A7319DB00E3186933FF331B7883
:101C0000DB00D3181B18454A944663441B889B0588
:101C10009A0D9146002B2AD14B46AA005219D200A8
:101C2000A21810008530FF3001684944016011009E
:101C30007D31FF310868484408608132FF32126804
:101C4000002A09D0AA005219D200A2187932FF3214
:101C50001268934200D391E0AB005B19DB00E318FC
:101C60006933FF3319782000FEF77FFC66E77319AC
:101C7000DB00E3181A006F32FF3212887D33FF3326
:101C800019684B46FFF7F8FBC6E7AB005B19DB00B2
:101C9000E3186C33FF331B78022B35D0AB005B1994
:101CA000DB00E3186933FF33197889002268944612
:101CB00061440A8820481040204A024392B20A80B8
:101CC00020681B789A0082181288520438D5502256
:101CD000825ADB00D3181B18164A944663441B88AB
:101CE0009B059A0D9146002B96D0AB005B19DB004B
:101CF000E3181A007132FF3212887D33FF331968FE
:101D00004B46FFF7B9FB87E73A0041462000FFF753
:101D1000C9FB814680E7C0468F0F00000604000023
:101D2000FF83FFFF0080FFFF8FBFFFFF8080FFFF6B
:101D30000F8FFFFF020400008F8FFFFFC080FFFFA7
:101D40005022825ADB00D3181B18204A9446634461
:101D50001B889B059A0D9146002B00D15CE7AB00D8
:101D60005B19DB00E3181A007332FF3212887D33EF
:101D7000FF3319684B46FFF77FFB4DE7414620686C
:101D8000FEF7F2FFDAE6FB0500D4EFE63A00414643
:101D90002000FFF79DFCF6E5AB005B19DB00E318C4
:101DA00000271F6401E7AB005E19F600A619F16B6E
:101DB0008F18F763736C9A1872644146FEF7D4FF6C
:101DC000E1E50020C0BCB946B046F8BD06040000FD
:101DD00070B50400AA239B00C35C012B0CD0AA257C
:101DE000AD00012343552333C1540068FEF792FF31
:101DF00000236355002070BD0220FCE770B504008D
:101E00000068FEF799FF030400D57DE02068FEF727
:101E100093FF430500D57BE02068FEF78DFF430468
:101E200005D5216844228B5A574803408B522068BD
:101E3000FEF782FF830405D5216844228B5A53485C
:101E400003408B522068FEF777FFC30418D5216842
:101E50004023CA5A04208243CA522168CA5A043015
:101E60008243CA52B8239B00E35C012B5ED0200062
:101E7000FEF7C2FB216844228B5A454803408B522F
:101E80002068FEF759FF030559D42068FEF754FF78
:101E9000030628D5216844228B5A802083438B5225
:101EA000B8239B00E35C002B60D12168043A8B5A75
:101EB000042003439BB28B5221688B5A08200343B2
:101EC0009BB28B52B8239B003F3AE25454232268C2
:101ED000D25A9208183B1340B9229200A350012114
:101EE000200000F0DBF92068FEF726FF830541D4CF
:101EF0002068FEF721FFC30505D5216844228B5ACF
:101F0000244803408B5270BD2000FFF737FD7DE76A
:101F1000216844228B5A204803408B522000FEF750
:101F200047FB00212000FFF753FF75E7B8239B0014
:101F30000022E2540021200000F0B0F997E7216868
:101F400040228B5A082003439BB28B5220684421C5
:101F5000435A124D2B40435221688B5A04200343AD
:101F60009BB28B522000FEF735FB8EE72000FEF778
:101F700031FBB8E7216844228B5A094803408B5251
:101F80002000FEF70EFBB3E7FFBFFFFFFFDFFFFF01
:101F9000FFEFFFFFFFFEFFFFFFFBFFFFFFF7FFFF6E
:101FA000FFFDFFFF70B504000D0049B2002929DBD9
:101FB00007262E40B0008119C9006931FF31611830
:101FC0008019C00020186A30FF30002606700720F4
:101FD00005400D700A61CB704A78002A00D0CD818F
:101FE000022B19D0AA239B00E35C012B17D0AA2552
:101FF000AD00012363552068FEF7ECFB0023635519
:10200000002070BD07202840461CB0008119C9007F
:10201000611801264E70DAE700230B71E2E7022017
:10202000EFE770B504000A004BB2002B21DB07205C
:10203000084083001918C9006931FF3161181B1865
:10204000DB00E3186A33FF330020187007231A40BF
:102050000A70AA239B00E35C012B14D0AA25AD00D3
:10206000012363552068FEF729FD002363550020F6
:1020700070BD07230B40581C83001918C900611854
:1020800001204870E2E70220F2E7F8B507260E408B
:10209000B400A119C9006931FF314118A519ED003B
:1020A00045192F007D37FF373A602A008132FF3211
:1020B00013600432002313606A35FF352B70A419B6
:1020C000E40004196934FF342670002E04D100683E
:1020D000FEF74AFE0020F8BD0068FEF745FEF9E76E
:1020E00007230B409900C918C90040188530FF30FC
:1020F00000687047F0B5C64600B507250D406F1C57
:10210000BE00F119C90088468044AC006419E4009F
:102110000419E26323644C229446A4444B3A61467A
:102120000A70A3640023636443465A70F619F600EC
:102130003554002D07D100684146FEF715FE0020FA
:1021400080BCB846F0BD00684146FEF70DFEF6E7DC
:1021500070B504000B0007220A4041688A422AD861
:1021600059B200291FDB9800C118C9006931FF313D
:102170006118C018C00020186A30FF3000230370B7
:1021800001238B700A70AA239B00E35C012B14D0FF
:10219000AA25AD00012363552068FEF747FD002303
:1021A0006355002070BD501C83001918C9006118C8
:1021B00001204870E4E70120F4E70220F2E770B55F
:1021C00004000B000F220A4041688A4230D85AB2FC
:1021D000002A23DB0720184082001118C90069314A
:1021E000FF3161181218D200A2186A32FF320020A3
:1021F000107000228A70073213400B70AA239B00D4
:10220000E35C012B16D0AA25AD000123635520689D
:10221000FEF732FD00236355002070BD07221A40EF
:10222000501C82001118C900611801204870E0E7B5
:102230000120F2E70220F0E710B50C060CD50724C8
:10224000214001318C006118C9004018002A0AD1D0
:102250000273C380002010BD8C006118C900693171
:10226000FF314018F2E70122027303811B0C438106
:10227000F0E70168BA239B000122C250083B00220C
:10228000C25454328B5A012003439BB28B528B5A57
:10229000022003439BB28B5200207047704700001E
:1022A00070B582B0041E00D17FE20368DB072BD536
:1022B000B34B5A680C231340042B1DD0B04B5A6803
:1022C0000C231340082B0ED06368012B41D0002B48
:1022D00056D1AB4B1A68AB490A401A601A68AA4932
:1022E0000A401A603BE0A64B5B68C02252021340D2
:1022F000802252029342E7D1A14B1B689B0303D576
:102300006368002B00D153E223689B0777D59C4B71
:102310005B680C221A4262D0994B5A680C23134016
:10232000082B53D0E368002B00D18AE0944A13684D
:1023300001210B43136000F027FC0500904B1B6844
:102340009B0775D400F020FC401B0228F6D903201F
:102350002CE28B4A116880235B020B431360636895
:10236000002B25D000F010FC0500854B1B689B035B
:10237000CAD400F009FC401B6428F6D9032015E2FA
:10238000052B09D07E4B1A687E490A401A601A68EC
:102390007D490A401A60E2E7794B19688022D2022F
:1023A0000A431A601968802252020A431A60D6E76B
:1023B00000F0EAFB0500724B1B689B03A4D500F0FC
:1023C000E3FB401B6428F6D90320EFE16C4B5B680C
:1023D000C02252021340802212029342A2D1684BC3
:1023E0001B689B0703D5E368012B00D0E2E1644939
:1023F0000B68F82293432269D20013430B602368D1
:102400001B0744D5E369002B2ED05D4A536A012196
:102410000B43536200F0B8FB0500594B5B6A9B0706
:1024200035D400F0B1FB401B0228F6D90320BDE1F2
:1024300053490B68F82293432269D20013430B607F
:10244000DDE74F4A136801218B43136000F09CFBCA
:1024500005004B4B1B689B07D1D500F095FB401B3B
:102460000228F6D90320A1E1454A536A01218B4392
:10247000536200F089FB0500414B5B6A9B0706D560
:1024800000F082FB401B0228F6D903208EE123686E
:102490005B0700D480E03A4BDB69DB001DD4384A8F
:1024A000D169802040050143D161D3690340019384
:1024B000019B0125354B1B68DB0510D5A368012B5B
:1024C00021D0002B36D12E4B1A6A01218A431A6281
:1024D0001A6A03318A431A621AE00025EAE72B4A96
:1024E000116880235B000B43136000F04DFB060076
:1024F000264B1B68DB05E1D400F046FB801B6428FB
:10250000F6D9032052E11E4A136A01210B431362DC
:10251000A368002B24D000F037FB0600184B1B6A81
:102520009B0737D400F030FB801B194B9842F5D93C
:1025300003203BE1052B09D0114B1A6A01218A4384
:102540001A621A6A03318A431A62E1E70C4B1A6A6B
:1025500004210A431A621A6A03390A431A62D7E746
:1025600000F012FB0600064B1B6A9B0712D500F019
:102570000BFB801B064B9842F5D9032016E1C046A1
:1025800000100240FFFFFEFFFFFFFBFF0070004056
:1025900088130000012D39D02368DB0610D563694C
:1025A000012B39D0053357D1894A536B04218B4312
:1025B0005363536BF4318B43A169C9000B435363DD
:1025C00023689B066ED5824B5A680C2313400C2B54
:1025D00060D07F4B5A680C231340082B53D0236ADA
:1025E000002B7ED07A4A516B80235B020B435363EE
:1025F00000F0CAFA0500764B5B6BDB0352D400F0A7
:10260000C3FA401B0228F6D90320CFE0704AD369F1
:1026100070490B40D361BFE76D4B5A6B04210A43ED
:102620005A635A6B03390A435A6300F0ADFA050046
:10263000674B5B6B9B0706D400F0A6FA401B022891
:10264000F6D90320B2E062494B6BF8229343A269AA
:10265000D20013434B63B3E75D4B5A6B04210A432B
:102660005A635A6B03398A435A6300F08DFA0500A6
:10267000574B5B6B9B07A3D500F086FA401B0228E3
:10268000F6D9032092E0524B5B68C02252021340FD
:102690009342A4D14E4B5B6BDB0303D5236A012B22
:1026A00000D089E0636A002B00D187E0484A516876
:1026B0000C220A40082A60D0022B25D0444A136815
:1026C00045490B40136000F05FFA0400404B1B6863
:1026D0009B0150D500F058FA001B0228F6D90320C0
:1026E00064E03B4A536B3D490B40536300F04CFAA6
:1026F0000500374B5B6BDB03D4D500F045FA401B7C
:102700000228F6D9032051E0314A136832490B40C0
:10271000136000F039FA05002D4B1B689B0106D5AC
:1027200000F032FA401B0228F6D903203EE0284B85
:10273000DA6A0F218A43216B0A43DA625A68284910
:102740000A40E16AA06A01430A435A60196880227C
:1027500052040A431A6000F017FA04001C4B1B686D
:102760009B0106D400F010FA001B0228F6D90320C2
:102770001CE000201AE0002018E0012B20D0144BB0
:102780005A68D96AC0235B021340A06A834219D1F8
:102790000F230B40216B8B4216D1F0239B031A4071
:1027A000E36A9A4212D1002000E0012002B070BD1D
:1027B0000120FBE70120F9E70120F7E70020F5E71A
:1027C0000120F3E70120F1E70120EFE70120EDE729
:1027D00000100240FFFFFFEFFFFFFFFEFFFFFEFFC5
:1027E000FF7FC2FF10B588B004AA1E4B13CB13C2E3
:1027F0001B6813606A461C4B13CB13C21B68136023
:102800001A4B5A680C231340082B04D00C2B26D1EA
:10281000174808B010BD910C0F23194004A8445C60
:102820001249C96A0B406946C95CC0235B021A4061
:1028300080235B029A4208D0C0235B029A4209D0EF
:102840000C48FDF761FC6043E3E70A48FDF75CFCD8
:102850006043DEE70648FDF757FC6043D9E70548CB
:10286000D7E7C046A03B0008B43B00080010024078
:10287000006CDC0200127A0070B504000D00002824
:1028800000D186E0474B1A68012313408B420AD2DD
:1028900044490B68012293432B430B600B681A4099
:1028A000AA4200D077E023689A070ED55B0705D5CA
:1028B0003D4A5168E023DB000B4353603A4A5368BA
:1028C000F0218B43A1680B4353602368DB0735D5A8
:1028D0006368012B09D0022B24D0032B28D0324A65
:1028E0001268920705D4012052E02F4A1268920321
:1028F00053D52D494A680320824313434B6000F0AF
:1029000043F90600284B5B680C221A4063689B0061
:102910009A4213D000F038F9801B244B9842F1D929
:10292000032035E0204A12689201E2D401202FE012
:102930001D4A526BD203DCD4012029E0194B1A68DE
:1029400001231340AB4209D916490B680122934376
:102950002B430B600B681A40AA4220D123685B0707
:1029600006D5114A536812490B40E1680B43536086
:10297000FFF738FF0C4B5A6812090F2313400D4A1A
:10298000D35CD8400C4B1860002000F0B9F8002050
:1029900070BD0120FCE70120FAE70120F8E70120E3
:1029A000F6E7C046002002400010024088130000F5
:1029B000FFF8FFFFC83B00086800002070B582B038
:1029C00004000368DB0337D5474BDB69DB005DD4CC
:1029D000454AD169802040050143D161D369034054
:1029E0000193019B0125414B1B68DB0550D53E4BF4
:1029F0001A6AC0239B00110019401A4213D0626862
:102A000013408B420FD0384B186A394A02401E6A75
:102A10008021490231431962196A364E31401962E8
:102A20001A62C30748D4304A136A31490B406168BF
:102A30000B431362012D4ED02368DB0706D52A4ACB
:102A4000136B03218B43A1680B43136323689B061D
:102A500006D5254A136B10218B43E1680B431363A2
:102A600023689B0306D5204A136B80218B43616941
:102A70000B43136323685B0532D51B4A136B40215C
:102A80008B4321690B43136300202AE00025AAE74A
:102A9000164A116880235B000B43136000F074F842
:102AA0000600124B1B68DB05A1D400F06DF8801BFB
:102AB0006428F6D9032014E000F066F806000A4BFB
:102AC0001B6A9B07AFD400F05FF8801B0A4B98424B
:102AD000F5D9032005E0D36908490B40D361ABE782
:102AE000002002B070BDC0460010024000700040DF
:102AF000FFFCFFFFFFFFFEFF88130000FFFFFFEF5B
:102B000010B504000F4B1978FA208000FDF7FCFA8D
:102B100001000D4B1868FDF7F7FA00F077F8002870
:102B20000DD1032C01D901200AE00130002221003F
:102B3000404200F02FF8054B1C60002000E001200F
:102B400010BDC04660000020680000206400002026
:102B500010B5064A136810210B4313600020FFF7DD
:102B6000CFFFFDF7C3FB002010BDC0460020024090
:102B7000034A1168034B1B785B1813607047C0460B
:102B80004013002060000020014B18687047C046C9
:102B90004013002070B5002811DB8308134EC033AA
:102BA0009B009D5903242040C000FF221400844054
:102BB000A54389010A4082402A439A5170BD0F23E0
:102BC0000340083B9B0806339B00094A9446634434
:102BD0005C6803221040C000FC3215008540AC4305
:102BE00089010A40824022435A60E7E700E100E0A1
:102BF00000ED00E0002805DB1F2318401E3B83404A
:102C0000014A13607047C04600E100E001388023AC
:102C10005B0498420FD2094A50600948036A1B02BC
:102C20001B0AC02109060B4303620023936007338C
:102C30001360002070470120FCE7C04610E000E070
:102C400000ED00E0704710B5002816D0AD239B00C2
:102C5000C358002B03D0AD239B000024C45000298F
:102C600002D0AC239B00C150A7239B000121C1547B
:102C70000270FDF7D7FC002010BD0220FCE7002900
:102C800004D0AD239B00C150002070470220FCE718
:102C900010B5FDF709FD002010BD10B5AD239B0058
:102CA000C358002B06D01B689847002800D110BDE0
:102CB0000220FCE70220FAE710B5AD239B00C358C1
:102CC0005B689847002010BD70B50400AA239B00E4
:102CD000C518280000F064F9A5239B000122E250EA
:102CE000114BE25A163BE2501033E15C1F230B40BC
:102CF000012B0FD0022B12D0002B05D07F2399433C
:102D00002000FDF7EFFC03E02900200000F022FB8B
:102D1000002070BD2900200000F052FBF8E72900D8
:102D2000200000F080FBF3E7AE02000070B5050064
:102D30000C001100002C38D1A5239B00C358032B95
:102D400003D0052B28D020003DE002005532FF3291
:102D5000D368126993420DD99B1A5530FF30C36076
:102D60009A4205D99AB2280000F0AAFC20002AE075
:102D700092B2F8E7AD239B00C3581B69002B04D027
:102D8000A7229200825C032A04D0280000F0A0FC55
:102D9000200018E09847F8E7A5239B000022C250C6
:102DA0000021FDF79FFC20000DE0AD239B00C358E0
:102DB0009B69002B08D0A7229200825C032A05D1D0
:102DC00021009847002070BD0220FCE70220FAE7AE
:102DD000F8B505000C001100002C5BD1A5239B0069
:102DE000C358022B0ED0042B01D0002B03D180211D
:102DF0002800FDF777FCA8239B00EB5C012B43D058
:102E00002000F8BD026A466AB24220D8C769310084
:102E10003800FDF7FFF9002906D1BE4204D8A623E9
:102E20009B00EB589F421ED3AD239B00EB58DB6801
:102E3000002B04D0A7229200AA5C032A21D0802173
:102E40002800FDF74FFC280000F04EFCD3E7921B52
:102E5000026292B200F01BFC002300220021280035
:102E6000FDF77DFCC7E70022280000F010FCA62338
:102E70009B000022EA50002300212800FDF76FFC90
:102E8000B9E728009847DAE7A8239B000022EA5414
:102E90002000B6E7AD239B00C3585B69002B08D028
:102EA000A7229200825C032A05D1210098470020C6
:102EB000A7E70220A5E70220A3E770B5040040239E
:102EC00000220021FDF7F9FB0125AC235B00E55052
:102ED00040260C33E650253BFF3B0022802120009A
:102EE000FDF7EBFBA5616662A7239B00E554002379
:102EF000A5229200A35063601032A350AE239B0022
:102F0000E358002B06D0AD239B00E3585B680021FB
:102F100020009847002070BD017400207047000019
:102F2000A7239B00C15C034A81540422C2540020A1
:102F30007047C0469D020000A7239B00C35C042B82
:102F400001D000207047024BC25C013BC254F8E73D
:102F50009D02000010B5A7239B00C35C032B01D08A
:102F6000002010BDAD239B00C358DB69002BF7D0B8
:102F70009847F5E70300002002E00130C0B20133BA
:102F80001A78002AF9D1704710B54B88012B00D070
:102F900010BDA9239B000122C25000F099FBF7E766
:102FA0000B7803704B7843708B78CA7812029B18A9
:102FB00043800B794A7912029B1883808B79CA79F6
:102FC00012029B18C380704710B504008021FDF7E2
:102FD00089FB00212000FDF785FB10BD30B583B0D3
:102FE00005000C006B460022DA804A88130A072B82
:102FF00000D9B6E09B006549CB589F46AC239B00A7
:10300000C3581B68007C6A46911D98476B4606337F
:103010001B88002B03D0E288002A00D0A6E0E388BA
:10302000002B00D1AEE003B030BD037C002B09D1F2
:10303000AD239B00C3589B6A6A46901D98470223A4
:103040004370E3E7AD239B00C358DB6A6A46901DDB
:10305000984702234370D9E7D2B2052A5DD892007F
:103060004B4B9B589F46AC239B00C3585B68002B7F
:1030700004D0007C6A46911D9847C7E72100FFF7FE
:10308000A3FFD0E7AC239B00C3589B68002B04D060
:10309000007C6A46911D9847B8E72100FFF794FF2E
:1030A000C1E7AC239B00C358DB68002B04D0007C35
:1030B0006A46911D9847A9E72100FFF785FFB2E70F
:1030C000AC239B00C3581B69002B04D0007C6A46CC
:1030D000911D98479AE72100FFF776FFA3E7AC23FD
:1030E0009B00C3585B69002B04D0007C6A46911D8D
:1030F00098478BE72100FFF767FF94E7AC239B001D
:10310000C3589B69002B04D0007C6A46911D9847E8
:103110007CE72100FFF758FF85E72100FFF754FF08
:1031200081E7037C002B07D1AD239B00C3585B6B69
:103130006A46901D984769E72100FFF745FF72E74F
:10314000037C002B09D1AD239B00C3581B6B6A463F
:10315000901D98470723437058E72100FFF734FF7D
:1031600061E721002800FFF72FFF5CE7191C93425D
:1031700000D9111C8AB26B46D9800100280000F0EA
:1031800078FA4CE7280000F0A3FA4CE7D83B000897
:10319000F83B000870B504008B88002B23D1CB8846
:1031A000002B20D14B887F2B1DD87F251D40A723C6
:1031B0009B00C35C032B0ED00D4BC5542900FDF7BB
:1031C000BCFA200000F084FA002D07D0A7239B0052
:1031D0000222E2540AE0FFF7F7FE07E0A7239B0074
:1031E0000122E25402E02000FFF7EEFE70BDC0466F
:1031F0009E02000070B504000D0089782A4B1970FA
:1032000001290FD8A7239B00C35C022B0ED0032BF0
:1032100023D02900FFF7D8FE234B19782000FFF7B1
:103220004BFD02E02900FFF7CFFE70BD002911D051
:103230004160A7239B000322C254FFF72EFD022802
:1032400003D0200000F044FAEFE729002000FFF748
:10325000BBFEEAE700F03CFAE7E7002911D043683B
:1032600099421ED0D9B2FFF727FD0F4B1978616044
:103270002000FFF712FD02280ED0200000F028FAEF
:10328000D3E7A7239B000222C2544160FFF714FD3D
:10329000200000F01DFAC8E729002000FFF794FE87
:1032A000C3E700F015FAC0E74413002010B5CB883F
:1032B000012B0BD1A7239B00C35C022B09D9032B45
:1032C00009D1011D012200F0D4F901E0FFF77CFED5
:1032D00010BD002B02D1FFF777FEF9E700238360D2
:1032E00001000831012200F0C4F9F1E710B5A7236D
:1032F0009B00C35C013B022B14D8CB88022B0ED160
:103300000123C360A9239B00C358002B01D00323D2
:10331000C36001000C31022200F0ABF910BDFFF7D1
:1033200053FEFBE7FFF750FEF8E710B5A7239B001D
:10333000C35C013B022B0AD84B88012B00D010BD87
:10334000A9239B000022C25000F0C2F9F7E7FFF763
:103350003BFEF4E710B50A7860231340202B06D01B
:10336000402B04D0002B09D0FFF72EFE04E0AD2344
:103370009B00C3589B689847002010BD4B78092BD1
:1033800018D89B000D4AD3589F46FFF727FEF3E756
:10339000FFF700FFF0E7FFF72DFFEDE7FFF786FFF0
:1033A000EAE7FFF7A3FFE7E7FFF7EEFDE4E7FFF744
:1033B000BCFFE1E7FFF708FEDEE7C046103C00086F
:1033C00070B505000C000A7860231340202B07D04D
:1033D000402B05D0002B03D0FFF7F6FD002070BD79
:1033E000A7239B00EB5C013B022B17D82379012B11
:1033F0000FD8AD239B00EB589B682100280098470D
:10340000E388002BEAD10028E8D1280000F060F919
:10341000E4E721002800FFF7D7FDDFE721002800BF
:10342000FFF7D2FDDAE770B5050088880A790B78D6
:1034300060241C40202C08D0402C06D0002C0DD03D
:103440002800FFF7C1FD002406E0AD239B00EB58E8
:103450009B68280098470024200070BD202C0AD0CB
:103460004E78012E3ED0032E0DD0002E64D02800C1
:10347000FFF7AAFDF0E7AD239B00EB589B682800FF
:1034800098470400E8E7A7239B00EB5C022B05D0DC
:10349000032B14D02800FFF797FDDDE7002A01D0A9
:1034A000802A03D12800FFF78FFDD5E711002800FF
:1034B000FDF718F980212800FDF714F9CCE74B88B7
:1034C000002B06D1002A04D0802A02D0CB88002B02
:1034D00003D0280000F0FCF8BEE711002800FDF73B
:1034E00001F9F6E7A7239B00EB5C022B05D0032B29
:1034F00014D02800FFF768FDAEE7002A01D0802A2B
:1035000003D12800FFF760FDA6E711002800FDF7B2
:10351000E9F880212800FDF7E5F89DE74B88002BAE
:103520009AD1530603D1280000F0D2F894E7110095
:103530002800FDF7E0F8F6E7A7239B00EB5C022BE1
:1035400006D0032B29D02800FFF73EFD340083E787
:10355000002A01D0802A12D1030615D47F210A4007
:103560009100891889005131FF3169180431002315
:103570000B600222280000F07CF834006CE7280081
:10358000FFF722FD340067E77F210A409100891888
:103590008900103169180431E9E744B2030622D4E6
:1035A0000F20104083001B189B00EB185933FF338A
:1035B0001B68002B25D0002C28DB7F2313409C00A8
:1035C000E418A4005134FF342C190434002A01D02B
:1035D000802A24D10023236002222100280000F049
:1035E00048F8340038E70F20104083001B189B0078
:1035F000EB189B69002BDED12800FFF7E5FC3400B7
:103600002AE72800FFF7E0FC340025E77F2313407A
:103610009C00E418A40010342C190434D6E71100DF
:103620002800FDF771F8002802D001232360D3E7BA
:1036300000232360D0E770B504000D0016000028B9
:1036400016D0FFF797FC013043009BB233802B70FC
:1036500003236B70013B08E001345A1CD2B2E854DA
:103660000233DBB2AA180021117020780028F3D1B0
:1036700070BD10B51300A522920002248450C361CE
:1036800003620A000021FDF761F8002010BD10B5AB
:1036900013000A000021FDF759F8002010BD10B5F5
:1036A0001300A522920003248450393AFF3A835034
:1036B000043283500A000021FDF751F8002010BDAC
:1036C00010B513000A000021FDF749F8002010BDD5
:1036D00010B5A5239B000422C25000230022002124
:1036E000FDF734F8002010BD10B5A5239B0005227E
:1036F000C250002300220021FDF731F8002010BD48
:1037000010B5AE239B00C4580433C358002B0DD012
:1037100080229200A05CFF2808D09B68044AA25C2B
:103720002100984780239B00FF22E254002010BD17
:10373000010200004323038000487047A4000020DA
:103740004323038000487047E800002043230380A0
:1037500000487047380100200A2303800048704762
:103760002C01002070B50400AE25AD004659FCF7D1
:10377000FFFF83239B00F0506359002B0BD0AF2336
:103780009B00E358DB6883229200B118083AB058D6
:103790009847002070BD0220FCE770B504000D00C2
:1037A000AE239B00C6580833C258002E21D08B0090
:1037B0005B189B00C318D869002808D08B005B18E1
:1037C000DB00D318996BFCF725FD002905D0852374
:1037D0009B000022F250002070BDAB005B199B00E3
:1037E000E3180022DA61002329002000FCF7AEFF75
:1037F000F1E70220F0E70000F0B583B005000C000F
:10380000AE239B00C75800236A46D37101AA1380D8
:103810000B78602216001E401A422BD0202E5BD15E
:10382000CA88002A1DD05BB2002B0DDAAF239B00A3
:10383000C3589B68487839009847E28839002800C7
:10384000FFF717FF00264AE04A7880239B00FA54CE
:103850008A79244BFA54CA883900FFF720FF0026E2
:103860003DE0AF239B00C3589B68487800229847EF
:10387000002634E04F780A2F16D00B2F23D0002FCC
:1038800003D0FFF7A1FB022629E0A7239B00C35C1E
:10389000032B03D0FFF798FB022620E0022201A9A8
:1038A000FFF7E7FE3E001AE0A7239B00C35C032B53
:1038B00003D0FFF789FB022611E001226B46D91DD8
:1038C000FFF7D7FE0BE0A7239B00C35C032B06D0BA
:1038D000FFF77AFB022602E0FFF776FB02263000B4
:1038E00003B0F0BD0102000070B504008121FCF7B7
:1038F000F0FE0025E56201212000FCF7EAFEB62378
:103900005B00E55082212000FCF7E3FE2564AE2336
:103910009B00E358002B0BD0AF239B00E3585B6860
:103920009847AE25AD006059FCF72EFF0023635188
:10393000002070BD70B50400037C002B3AD18026B6
:10394000B600330002228121FCF7B7FE0125E562B3
:103950003300022201212000FCF7AFFEB6235B00FA
:10396000E5500823032282212000FCF7A6FE012354
:10397000236487208000FCF703FF0500AE239B0033
:10398000E050002832D00433E3581B6898470023E6
:1039900085229200AB500432AB50267C002E1AD107
:1039A0008033143AAA589B0001212000FCF7D7FE6F
:1039B000300070BD402302228121FCF77EFE0125EC
:1039C000E5624023022201212000FCF776FEB623A7
:1039D0005B00E550C5E781239B00EA58C53BFF3BF0
:1039E00001212000FCF7BBFE0026E1E70126DFE70E
:1039F000002904D0AF239B00C15000207047022053
:103A0000FCE7AE239B00C35882208000195084211C
:103A100089005A5000207047AE239B00C258B43B27
:103A2000D1500020704710B5AE239B00C258002A29
:103A300015D0037C002B09D1803381218900525895
:103A40009B000121FCF78BFE002010BD81239B0011
:103A5000D258C53BFF3B0121FCF781FEF4E7022071
:103A6000F3E700001348854613480168090E134A1E
:103A7000914205D11248134901601348134901606E
:103A800013481449144A002302E0D458C4500433A4
:103A9000C4188C42F9D3114A114C002301E0136081
:103AA0000432A242FBD3FFF7CDF800F01DF8FCF77B
:103AB00002FCFEE700180020040000001F000000C8
:103AC000181002400100000000000140000000004A
:103AD000000000207C010020403C00087C01002008
:103AE00048130020FEE7000070B500260C4D0D4C79
:103AF000641BA410A64209D1002600F021F80A4D4B
:103B00000A4C641BA410A64205D170BDB300EB584B
:103B100098470136EEE7B300EB5898470136F2E7D5
:103B2000383C0008383C0008383C00083C3C0008A1
:103B300003008218934200D1704719700133F9E7EE
:103B4000F8B5C046F8BC08BC9E467047F8B5C046FC
:083B5000F8BC08BC9E4670475A
:103B580053544D3332205669727475616C20436F2B
:103B68006D506F727400000053544D6963726F6535
:103B78006C656374726F6E6963730000434443201D
:103B8800436F6E666967000043444320496E74655D
:103B980072666163650000000203040506070809F0
:103BA8000A0B0C0D0E0F1010000000000102030498
:103BB80005060708090A0B0C0D0E0F10000000007F
:103BC80000000000000000000102030406070809C5
:103BD80062310008FC2F00082A300008583000081D
:103BE80062310008623100082231000840310008C3
:103BF8006630000884300008A2300008C030000891
:103C0800DE300008FC300008A2330008AE3300089C
:103C1800B4330008A8330008B43300089033000810
:103C28008A330008B43300089C3300089633000830
:043C3800E900000897
:043C3C00C1000008BB
:103C400079030008850300083D04000815040008F6
:103C50000104000859040008810400081201000250
:103C600002020040830440570002010203010000E9
:103C7000040309041A030000000000000000000013
:103C80000000000000000000000000000000000034
:103C9000CD040008A9040008AD040008B104000820
:103CA000010000000400000000127A00353900080D
:103CB000E9380008F9370008000000000137000863
:103CC0009B37000865370008000000000000000076
:103CD0000000000041370008353700084D37000864
:103CE0005937000809024300020100C032090400EC
:103CF0000001020201000524001001052401000159
:103D000004240202052406000107058203080010AE
:103D100009040100020A000000070501024000003A
:103D2000070581024000000009024300020100C0B3
:103D300032090400000102020100052400100105FF
:103D40002401000104240202052406000107058263
:103D50000308001009040100020A00000007050121
:103D60000200020007058102000200000A060002AC
:103D7000000000400100000009074300020104C0E8
:103D800032090400000102020100052400100105AF
:103D90002401000104240202052406000107058213
:103DA0000308001009040100020A000000070501D1
:0C3DB000024000000705810240000000F6
:0400000508003A6550
:00000001FF
